S00B00004752412E737265633F
S11300000C94A7000C944E060C9475060C94C40032
S11300100C94C4000C94C4000C94C4000C94C4004C
S11300200C94C4000C94C4000C94C4000C94C4003C
S11300300C94C4000C94C4000C94C4000C94C4002C
S11300400C94C4000C94C4000C949C060C94C4003E
S11300500C94C40000407A10F35A00A0724E1809A0
S11300600010A5D4E80000E87648170000E40B541B
S1130070020000CA9A3B000000E1F50500008096EA
S11300809800000040420F000000A086010000001C
S1130090102700000000E8030000000064000000D6
S11300A000000A00000000000100000000002C769F
S11300B0D888DC674F0823DFC1DFAE59E1B1B796BA
S11300C0E5E3E453C63AE651997696E8E6C2842617
S11300D0EB898C9B62ED407C6FFCEFBC9C9F40F2F3
S11300E0BAA56FA5F490055A2AF75C936B6CF9676F
S11300F06DC11BFCE0E40D47FEF520E6B500D0ED34
S1130100902E0300943577050080841E080000209B
S11301104E0A000000C80C333333330F986E128339
S11301201141EF8D2114893BE65516CFFEE6DB180D
S1130130D1844B381BF77C1D901DA4BBE4242032D2
S113014084725E228100C9F124ECA1E53D271124CB
S11301501FBECFE5D4E0DEBFCDBF10E0A0E6B0E027
S1130160EAEBF6E102C005900D92A43CB107D9F781
S113017020E0A4ECB0E001C01D92A33DB207E1F77A
S11301800E94C9030C945B0B0C9400008091C7007F
S113019091E00E94230560E08091C7000E94410421
S11301A02FEF89EF90E0215080409040E1F700C0AC
S11301B0000061E08091C7000E944104089580918D
S11301C0C70090E00E9423058091C7000E94EB04C1
S11301D08111FACF8091C7000E94EB048823D1F3E8
S11301E08091C7000E94EB048111FACF0895CF9348
S11301F0DF93C0E0D0E024C08091C7000E94EB04EC
S11302008823D1F380EA8A95F1F78091C7000E9490
S1130210EB04882349F08091C40090E0880F991F73
S113022081608093C40005C08091C400880F8093CE
S1130230C4008091C7000E94EB048111FACF21967B
S1130240C830D105CCF28091C400DF91CF910895DC
S1130250CF93DF9300D000D01F92CDB7DEB7809349
S1130260C70040E061E080E690E00E94EC026FE7A6
S113027070E080E690E00E94C70240E062E080E621
S113028090E00E94EC026AE870E080E690E00E9450
S1130290C7020E94C6000E94DF000E94F7008093FC
S11302A0CB000E94F7008093C8000E94F70080935F
S11302B0CA000E94F7008093CC000E94F70080934C
S11302C0C900E091CB00F0E09091C8009F01290F94
S11302D0311D9091CA00290F311D9091CC00290F36
S11302E0311D482F50E02417350769F040E061E0E4
S11302F080E690E00E94EC0261E970E080E690E024
S11303000E94C70268C04AE0BE016F5F7F4FCF0101
S11303100E94BD084BE061E080E690E00E94EC02A0
S1130320BE016F5F7F4F80E690E00E94C70267E9DD
S113033070E080E690E00E94C7028091C8004AE025
S1130340BE016F5F7F4F90E00E94BD08BE016F5FEA
S11303507F4F80E690E00E94C70269E970E080E682
S113036090E00E94C7028091CA004AE0BE016F5F1C
S11303707F4F90E00E94BD0847E062E080E690E095
S11303800E94EC02BE016F5F7F4F80E690E00E9406
S1130390C70267E970E080E690E00E94C70280919E
S11303A0CC004AE0BE016F5F7F4F90E00E94BD0821
S11303B0BE016F5F7F4F80E690E00E94C7026BE949
S11303C070E080E690E00E94C7024CE062E080E6C4
S11303D090E00E94EC020F900F900F900F900F90FE
S11303E0DF91CF9108951F93CF93DF93EC01162FE4
S11303F060E08C810E94410460E08D810E94410490
S1130400412F42954F70BE0184E00E94C30461E015
S11304108E810E9441048FE99FE00197F1F700C0AB
S1130420000060E08E810E944104412F4F70BE01A4
S113043084E00E94C30461E08E810E9441048FE93C
S11304409FE00197F1F700C0000060E08E810E94F8
S11304504104DF91CF911F9108950F931F93CF9380
S1130460DF93CDB7DEB72E970FB6F894DEBF0FBE7D
S1130470CDBF8C0180E090E011C0F801E80FF91FB6
S11304802081FC01EE0FFF1F41E050E04C0F5D1F87
S1130490E40FF51F208321E0218301968730910525
S11304A064F3BE016F5F7F4F87E00E94A40560E0A4
S11304B0F80185810E9441048FE99FE00197F1F7DB
S11304C000C0000063E3C8010E94F30162E3C801B5
S11304D00E94F30168E2C8010E94F3016FE0C801C1
S11304E00E94F30161E0C8010E94F30162E0C801C7
S11304F00E94F30166E0C8010E94F30160E8C801AC
S11305000E94F3012E960FB6F894DEBF0FBECDBF46
S1130510DF91CF911F910F9108951F93CF93DF9394
S1130520EC01162F61E08C810E94410460E08D8112
S11305300E944104412F42954F70BE0184E00E9405
S1130540C30461E08E810E9441048FE99FE001971A
S1130550F1F700C0000060E08E810E944104412F49
S11305604F70BE0184E00E94C30461E08E810E944A
S113057041048FE99FE00197F1F700C0000060E0BB
S11305808E810E944104DF91CF911F910895CF92F3
S1130590DF92EF92FF920F931F93CF93DF936C013F
S11305A07B01CB010E94AB038C01C0E0D0E008C00A
S11305B0F701EC0FFD1F6081C6010E948D02219698
S11305C0C017D107ACF3DF91CF911F910F91FF902A
S11305D0EF90DF90CF900895613029F0623031F0D0
S11305E060E070E005C060E870E002C060EC70E0BC
S11305F0640F711D0E94F301089561E00E94F301EC
S11306008FEC97E00197F1F700C0000008958F92F6
S11306109F92AF92BF92EF92FF920F931F93CF934B
S1130620DF93CDB7DEB72A970FB6F894DEBF0FBEBF
S1130630CDBF80E00E943204BC0180E090E00E94C3
S1130640A20720E030E048EC52E40E94300820E0A9
S113065030EC4FE754E40E9430079B01AC0160E0AA
S113066070E088EC92E40E94C3064B015C0140E018
S113067061E087E690E00E94EC026EE970E087E6B4
S113068090E00E94C702CE0101967C018C0122E019
S113069043E0C501B4010E949D08D7010D900020DC
S11306A0E9F7119785E0E8EAF0E001900D928A9568
S11306B0E1F74AE061E087E690E00E94EC02B701CE
S11306C087E690E00E94C7028AE0F70111928A95BA
S11306D0E9F72A960FB6F894DEBF0FBECDBFDF91BF
S11306E0CF911F910F91FF90EF90BF90AF909F908B
S11306F08F90089580916E0090916F000E94230561
S113070040E062E080E790E00E94EC026DEA70E075
S113071080E790E00E94C70280E10E94EB048130F0
S113072069F446E062E080E790E00E94EC0263EB4B
S113073070E080E790E00E94C702089546E062E01E
S113074080E790E00E94EC026BEB70E080E790E0C1
S11307500E94C7020895AC0180E090E0FA01E80F1E
S1130760F91F2081222311F00196F8CF089580917A
S1130770C5009091C600019729F41092C60010920A
S1130780C500089581E090E09093C6008093C50071
S1130790089560E071E082E00E94C3052FEF87EACC
S11307A091E6215080409040E1F700C0000087E7C7
S11307B090E00E942D0267E081E00E94220487E716
S11307C090E00E94FD0267EB73E080E00E9439062E
S11307D08091C5009091C600019761F481E10E9467
S11307E028012FEF87EA91E6215080409040E1F7FD
S11307F000C0000087E790E00E94FD028FE19EE4C4
S11308000197F1F700C000008091C5009091C600E7
S1130810892B69F40E9407030E947A039FEF27EA59
S113082081E6915020408040E1F700C0000087E756
S113083090E00E94FD028FE19EE40197F1F700C071
S11308400000C1CF27B130E4839FC00111242F7170
S1130850822B87B986B1887F682B66B986B1806898
S113086086B9089597B1987F892B87B986B180643A
S113087086B9349BFECF86B1806186B984B195B1C7
S11308800895982F9695969596958770913021F1B5
S113089030F09230F1F1933009F458C0089561308A
S11308A069F44BB321E030E0B90102C0660F771F51
S11308B08A95E2F7CB01842B8BBB08954BB321E0DF
S11308C030E0B90102C0660F771F8A95E2F7CB01C9
S11308D0809584238BBB0895613069F448B321E08B
S11308E030E0B90102C0660F771F8A95E2F7CB01A9
S11308F0842B88BB089548B321E030E0B90102C0DD
S1130900660F771F8A95E2F7CB018095842388BB15
S11309100895613069F445B321E030E0B90102C0C3
S1130920660F771F8A95E2F7CB01842B85BB089568
S113093045B321E030E0B90102C0660F771F8A9504
S1130940E2F7CB018095842385BB0895613069F477
S113095042B321E030E0B90102C0660F771F8A95E7
S1130960E2F7CB01842B82BB089542B321E030E04F
S1130970B90102C0660F771F8A95E2F7CB01809513
S1130980842382BB0895EF92FF920F931F93CF931A
S1130990DF93F82E8B01E42EC0E0D0E010C06E2D62
S11309A070E00C2E02C0759567950A94E2F7F80181
S11309B0EC0FFD1F617080810E94410421968F2DF0
S11309C090E0C817D9075CF3DF91CF911F910F9185
S11309D0FF90EF900895982F969596959695482FA9
S11309E04770913081F028F09230B9F09330F9F0EB
S11309F028C099B3892F90E002C0959587954A95B0
S1130A00E2F78170089526B330E0C90102C09595DC
S1130A1087954A95E2F78170089523B330E0C901C0
S1130A2002C0959587954A95E2F78170089520B3A1
S1130A3030E0C90102C0959587954A95E2F7817027
S1130A40089580E00895282F269526952695877089
S1130A5021111DC0913069F44AB321E030E0B9019D
S1130A6002C0660F771F8A95E2F7CB01842B8ABBFD
S1130A7008954AB321E030E0B90102C0660F771F40
S1130A808A95E2F7CB01809584238ABB08952130AF
S1130A90E9F4913069F447B321E030E0B90102C0D0
S1130AA0660F771F8A95E2F7CB01842B87BB0895E5
S1130AB047B321E030E0B90102C0660F771F8A9581
S1130AC0E2F7CB018095842387BB08952230E9F4B3
S1130AD0913069F444B321E030E0B90102C0660FFB
S1130AE0771F8A95E2F7CB01842B84BB089544B326
S1130AF021E030E0B90102C0660F771F8A95E2F762
S1130B00CB018095842384BB08952330E1F4913094
S1130B1069F441B321E030E0B90102C0660F771FE8
S1130B208A95E2F7CB01842B81BB089541B321E080
S1130B3030E0B90102C0660F771F8A95E2F7CB0156
S1130B408095842381BB0895EF92FF921F93CF93E6
S1130B50DF93182F7B01C0E0D0E00AC0FE01EE0F46
S1130B60FF1FEE0DFF1D808191810E9423052196B8
S1130B70812F90E0C817D9078CF3DF91CF911F9193
S1130B80FF90EF900895613091F120F0623009F404
S1130B905BC00895713029F59BB790649BBF813089
S1130BA059F018F0823079F015C085B78E7F85BF73
S1130BB085B78D7F85BF089585B7816085BF85B76B
S1130BC08D7F85BF089585B78E7F85BF85B7826089
S1130BD085BF089585B7816085BF85B7826085BF6D
S1130BE00895711145C08BB78F7B8BBF0895713009
S1130BF029F59BB790689BBF813059F018F082307B
S1130C0079F015C085B78B7F85BF85B7877F85BF92
S1130C10089585B7846085BF85B7877F85BF0895AC
S1130C2085B78B7F85BF85B7886085BF089585B7F5
S1130C30846085BF85B7886085BF0895711118C029
S1130C408BB78F778BBF0895713069F49BB790622F
S1130C509BBF823021F484B78F7B84BF089584B70F
S1130C60806484BF0895711103C08BB78F778BBFE5
S1130C700895811105C07093D0006093CF0008954A
S1130C80813029F47093D2006093D10008958230AA
S1130C9021F47093CE006093CD0008951F920F92BB
S1130CA00FB60F9211242F933F934F935F936F933B
S1130CB07F938F939F93AF93BF93EF93FF93E091B1
S1130CC0CF00F091D0000995FF91EF91BF91AF91C2
S1130CD09F918F917F916F915F914F913F912F9150
S1130CE00F900FBE0F901F9018951F920F920FB682
S1130CF00F9211242F933F934F935F936F937F939E
S1130D008F939F93AF93BF93EF93FF93E091D100A1
S1130D10F091D2000995FF91EF91BF91AF919F910E
S1130D208F917F916F915F914F913F912F910F9090
S1130D300FBE0F901F9018951F920F920FB60F922F
S1130D4011242F933F934F935F936F937F938F93CC
S1130D509F93AF93BF93EF93FF93E091CD00F091F6
S1130D60CE000995FF91EF91BF91AF919F918F9123
S1130D707F916F915F914F913F912F910F900FBE93
S1130D800F901F9018955058BB27AA270E94DB0686
S1130D900C94F6070E94E80738F00E94EF0720F051
S1130DA039F49F3F19F426F40C94E5070EF4E0950A
S1130DB0E7FB0C94DF07E92F0E94070858F3BA17E2
S1130DC0620773078407950720F079F4A6F50C945D
S1130DD029080EF4E0950B2EBA2FA02D0B01B901B2
S1130DE090010C01CA01A0011124FF27591B99F09D
S1130DF0593F50F4503E68F11A16F040A22F232FA9
S1130E00342F4427585FF3CF469537952795A795F8
S1130E10F0405395C9F77EF41F16BA0B620B730B9F
S1130E20840BBAF09150A1F0FF0FBB1F661F771F10
S1130E30881FC2F70EC0BA0F621F731F841F48F4C5
S1130E40879577956795B795F7959E3F08F0B0CF4E
S1130E509395880F08F09927EE0F97958795089535
S1130E600E9444070C94F6070E94EF0758F00E9472
S1130E70E80740F029F45F3F29F00C94DF07511193
S1130E800C942A080C94E5070E94070868F3992338
S1130E90B1F3552391F3951B550BBB27AA27621772
S1130EA07307840738F09F5F5F4F220F331F441F7F
S1130EB0AA1FA9F335D00E2E3AF0E0E832D09150B3
S1130EC05040E695001CCAF72BD0FE2F29D0660FA0
S1130ED0771F881FBB1F261737074807AB07B0E8E3
S1130EE009F0BB0B802DBF01FF2793585F4F3AF0E9
S1130EF09E3F510578F00C94DF070C942A085F3F5D
S1130F00E4F3983ED4F3869577956795B795F7956E
S1130F109F5FC9F7880F911D9695879597F9089556
S1130F20E1E0660F771F881FBB1F621773078407F2
S1130F30BA0720F0621B730B840BBA0BEE1F88F701
S1130F40E0950895E89409C097FB3EF49095809548
S1130F50709561957F4F8F4F9F4F9923A9F0F92F7B
S1130F6096E9BB279395F695879577956795B795F9
S1130F70F111F8CFFAF4BB0F11F460FF1BC06F5FDF
S1130F807F4F8F4F9F4F16C0882311F096E911C0F1
S1130F90772321F09EE8872F762F05C0662371F012
S1130FA096E8862F70E060E02AF09A95660F771F26
S1130FB0881FDAF7880F9695879597F9089597F91A
S1130FC09F6780E870E060E008959FEF80EC0895EB
S1130FD000240A9416161706180609060895002414
S1130FE00A9412161306140605060895092E03948E
S1130FF0000C11F4882352F0BB0F40F4BF2B11F402
S113100060FF04C06F5F7F4F8F4F9F4F089557FD60
S11310109058440F551F59F05F3F71F04795880F62
S113102097FB991F61F09F3F79F0879508951216F9
S113103013061406551FF2CF4695F1DF08C01616A5
S113104017061806991FF1CF869571056105089456
S11310500895E894BB2766277727CB0197F908956D
S11310600E9443080C94F6070E94E80738F00E9497
S1131070EF0720F0952311F00C94DF070C94E5079B
S113108011240C942A080E94070870F3959FC1F359
S1131090950F50E0551F629FF001729FBB27F00D22
S11310A0B11D639FAA27F00DB11DAA1F649F662777
S11310B0B00DA11D661F829F2227B00DA11D621FC6
S11310C0739FB00DA11D621F839FA00D611D221F80
S11310D0749F3327A00D611D231F849F600D211D64
S11310E0822F762F6A2F11249F5750409AF0F1F0E7
S11310F088234AF0EE0FFF1FBB1F661F771F881F50
S113110091505040A9F79E3F510580F00C94DF07A1
S11311100C942A085F3FE4F3983ED4F386957795C0
S11311206795B795F795E7959F5FC1F7FE2B880FF5
S1131130911D9695879597F90895EF920F931F93B4
S1131140CF93DF93E80147FD02C034E001C034E1EE
S1131150042E000C550B57FF03C0519541955109BE
S1131160E32E022F242FAE010E94E208CE01DF916C
S1131170CF911F910F91EF900895BB274A3031F41E
S1131180992322F4BDE2909581959F4F0C94C90850
S1131190BB27FB015527AA27880F991FAA1FA4174D
S11311A010F0A41B83955051B9F7A05DAA3308F041
S11311B0A95DA193009779F7B111B1931192CB0175
S11311C00C94140BA9E0B0E0E8EEF8E00C942A0BC0
S11311D06A01122FB02E2BE3201720F0FF24F39482
S11311E0F00E02C02CE3F22E0F2D27E0AE014F5F6C
S11311F05F4F0E943C0ABC014981842F8970813071
S113120031F0E1FC06C0E0FE06C090E205C09DE2BC
S113121003C09BE201C090E05E2D507143FF3CC0CF
S1131220911102C083E001C084E0811718F4212FDA
S1131230281B01C020E051110BC0F601822F30E2BF
S1131240882319F031938150FBCFC20ED11C20E0CA
S1131250992329F0D6019C93F60131966F01C601BA
S11312600396E2FE0AC03EE4D6013C9341E41196A3
S11312704C93119712963C9306C03EE6F6013083D8
S113128041E641833283FC01322F40E2332309F4E7
S113129042C041933150FACF42FF44C0911102C081
S11312A083E001C084E0811718F4212F281B01C0BA
S11312B020E051110BC0F601822F30E2882319F08F
S11312C031938150FBCFC20ED11C20E0992329F029
S11312D0D6019C93F60131966F01C6010396E2FE96
S11312E00BC039E4D6013C933EE411963C9311972C
S11312F036E412963C9307C039E6F60130833EE6A5
S1131300318336E63283FC01322F40E2332319F075
S113131041933150FBCFFC01E20FF11D10828EEF9F
S11313209FEFA6C021E030E0911102C020E030E040
S1131330161617061CF4FB01319602C0E1E0F0E03A
S11313402E0F3F1FBB2021F0EB2DF0E0319602C0A1
S1131350E0E0F0E02E0F3F1FE12FF0E02E173F07F3
S11313601CF4121B212F01C020E08E2D887159F42A
S1131370F601822F30E2882319F031938150FBCF9C
S1131380C20ED11C20E0992329F0D6019C93F601CA
S113139031966F0151110BC0F601822F90E388231F
S11313A019F091938150FBCFC20ED11C20E00F2D78
S11313B0060F9A81342F307144FF03C0913309F42E
S11313C00150101624F4093018F008E001C001E0BF
S11313D0AB0177FF02C040E050E0FB01E41BF50BDA
S11313E0A1E0B0E0AC0FBD1FEA0FFB1F8EE2A82EF8
S11313F04B01801A91080B2D10E0119501951109EC
S11314004F3FBFEF5B0721F4D601AC9211966D01FB
S1131410641775072CF08416950614F4818101C0B5
S113142080E3415051093196D60111967D01401750
S1131430510724F0D6018C936701E2CF6417750736
S113144039F4963320F4953319F4311101C081E352
S1131450F6018083F701822F90E2882319F091939B
S11314608150FBCFF701E20FF11D108280E090E084
S11314702996ECE00C94460B283008F027E033273B
S1131480DA01990F311D87FD9160009661057105A0
S113149039F432602E5F3D9330E32A95E1F70895E5
S11314A09F3F30F080387105610509F03C5F3C5F77
S11314B03D93913008F08068911DDF93CF931F9383
S11314C00F93FF92EF92192F987F9695E92F969597
S11314D09695E90FFF27E255FF4F99273327EE240E
S11314E0FF24A701E70105900894079428F4360F18
S11314F0E71EF81E491F511D660F771F881F991F8D
S11315000694A1F70590079428F4E70EF81E491FE6
S1131510561FC11D770F881F991F661F0694A1F7D8
S11315200590079428F4F80E491F561FC71FD11DB4
S1131530880F991F661F771F0694A1F705900794DB
S113154020F4490F561FC71FD81F990F661F771F16
S1131550881F0694A9F784911095177041F0D695C9
S1131560C79557954795F794E7941A95C1F7E4E51D
S1131570F0E06894159015913591659195910590D9
S11315807FE27395E118F10A430B560BC90BD0099E
S1131590C0F7E10CF11E431F561FC91FD01D7EF476
S11315A0703311F48A95E6CFE894015030F0080FB7
S11315B00AF40027021708F4202F2395022F7A3308
S11315C028F079E37D932A95E9F710C07D932A9555
S11315D089F6069497956795379517951794E118AA
S11315E0F10A430B560BC90BD00998F023957E9151
S11315F073957A3308F070E37C932013B8F77E91E7
S113160070617D9330F0839571E37D9370E32A9547
S1131610E1F71124EF90FF900F911F91CF91DF918B
S1131620992787FD90950895DC01FC01672F71913E
S11316307723E1F7329704C07C916D9370836291B4
S1131640AE17BF07C8F308952F923F924F925F924F
S11316506F927F928F929F92AF92BF92CF92DF92BE
S1131660EF92FF920F931F93CF93DF93CDB7DEB723
S1131670CA1BDB0B0FB6F894DEBF0FBECDBF0994B7
S11316802A88398848885F846E847D848C849B840E
S1131690AA84B984C884DF80EE80FD800C811B811C
S11316A0AA81B981CE0FD11D0FB6F894DEBF0FBE4B
S10D16B0CDBFED010895F894FFCFBB
S11316BA18191A1B1C1D1E18191A1B1C1D1E100092
S11316CA18191A1B1C1D1E18191A1B1C1D1E00484A
S11316DA756D6964697479203D0054656D70203DA7
S11316EA004572726F72002E0025004320004D6F70
S11316FA6973747572653A00252020200052616965
S113170A6E3A005261696E696E67004E6F205261CB
S107171A696E0000F0
S9030000FC
